{
  "contractName": "New_Tender",
  "abi": [
    {
      "constant": true,
      "inputs": [],
      "name": "tenderId",
      "outputs": [
        {
          "internalType": "uint256",
          "name": "",
          "type": "uint256"
        }
      ],
      "payable": false,
      "stateMutability": "view",
      "type": "function"
    },
    {
      "constant": true,
      "inputs": [
        {
          "internalType": "uint256",
          "name": "",
          "type": "uint256"
        }
      ],
      "name": "tender_details",
      "outputs": [
        {
          "components": [
            {
              "internalType": "string",
              "name": "tender_type",
              "type": "string"
            },
            {
              "internalType": "string",
              "name": "tender_name",
              "type": "string"
            },
            {
              "internalType": "address",
              "name": "owner_address",
              "type": "address"
            }
          ],
          "internalType": "struct New_Tender.BasicInfo",
          "name": "basicInfo",
          "type": "tuple"
        },
        {
          "components": [
            {
              "internalType": "string",
              "name": "Title",
              "type": "string"
            },
            {
              "internalType": "string",
              "name": "Description",
              "type": "string"
            },
            {
              "internalType": "uint256",
              "name": "Tender_Value",
              "type": "uint256"
            },
            {
              "internalType": "uint256",
              "name": "Bid_Validity_Days",
              "type": "uint256"
            },
            {
              "internalType": "string",
              "name": "Location",
              "type": "string"
            }
          ],
          "internalType": "struct New_Tender.WorkItems",
          "name": "workItems",
          "type": "tuple"
        },
        {
          "components": [
            {
              "internalType": "string",
              "name": "Media_Publish_Date",
              "type": "string"
            },
            {
              "internalType": "string",
              "name": "Bit_Start_Date",
              "type": "string"
            },
            {
              "internalType": "string",
              "name": "Bid_End_Date",
              "type": "string"
            }
          ],
          "internalType": "struct New_Tender.CriticalDetails",
          "name": "criticalDetails",
          "type": "tuple"
        }
      ],
      "payable": false,
      "stateMutability": "view",
      "type": "function"
    },
    {
      "constant": true,
      "inputs": [],
      "name": "userId",
      "outputs": [
        {
          "internalType": "uint256",
          "name": "",
          "type": "uint256"
        }
      ],
      "payable": false,
      "stateMutability": "view",
      "type": "function"
    },
    {
      "constant": true,
      "inputs": [
        {
          "internalType": "uint256",
          "name": "",
          "type": "uint256"
        }
      ],
      "name": "user_credentials",
      "outputs": [
        {
          "internalType": "uint256",
          "name": "userId",
          "type": "uint256"
        },
        {
          "internalType": "string",
          "name": "Uname",
          "type": "string"
        },
        {
          "internalType": "string",
          "name": "Password",
          "type": "string"
        }
      ],
      "payable": false,
      "stateMutability": "view",
      "type": "function"
    },
    {
      "constant": true,
      "inputs": [
        {
          "internalType": "uint256",
          "name": "",
          "type": "uint256"
        }
      ],
      "name": "users",
      "outputs": [
        {
          "internalType": "uint256",
          "name": "userId",
          "type": "uint256"
        },
        {
          "components": [
            {
              "components": [
                {
                  "internalType": "string",
                  "name": "tender_type",
                  "type": "string"
                },
                {
                  "internalType": "string",
                  "name": "tender_name",
                  "type": "string"
                },
                {
                  "internalType": "address",
                  "name": "owner_address",
                  "type": "address"
                }
              ],
              "internalType": "struct New_Tender.BasicInfo",
              "name": "basicInfo",
              "type": "tuple"
            },
            {
              "components": [
                {
                  "internalType": "string",
                  "name": "Title",
                  "type": "string"
                },
                {
                  "internalType": "string",
                  "name": "Description",
                  "type": "string"
                },
                {
                  "internalType": "uint256",
                  "name": "Tender_Value",
                  "type": "uint256"
                },
                {
                  "internalType": "uint256",
                  "name": "Bid_Validity_Days",
                  "type": "uint256"
                },
                {
                  "internalType": "string",
                  "name": "Location",
                  "type": "string"
                }
              ],
              "internalType": "struct New_Tender.WorkItems",
              "name": "workItems",
              "type": "tuple"
            },
            {
              "components": [
                {
                  "internalType": "string",
                  "name": "Media_Publish_Date",
                  "type": "string"
                },
                {
                  "internalType": "string",
                  "name": "Bit_Start_Date",
                  "type": "string"
                },
                {
                  "internalType": "string",
                  "name": "Bid_End_Date",
                  "type": "string"
                }
              ],
              "internalType": "struct New_Tender.CriticalDetails",
              "name": "criticalDetails",
              "type": "tuple"
            }
          ],
          "internalType": "struct New_Tender.Master_Struct",
          "name": "masterStruct",
          "type": "tuple"
        }
      ],
      "payable": false,
      "stateMutability": "view",
      "type": "function"
    },
    {
      "constant": false,
      "inputs": [],
      "name": "summa",
      "outputs": [
        {
          "internalType": "uint256",
          "name": "",
          "type": "uint256"
        }
      ],
      "payable": false,
      "stateMutability": "nonpayable",
      "type": "function"
    },
    {
      "constant": false,
      "inputs": [
        {
          "internalType": "string",
          "name": "Uname",
          "type": "string"
        },
        {
          "internalType": "string",
          "name": "Password",
          "type": "string"
        }
      ],
      "name": "signup",
      "outputs": [
        {
          "internalType": "string",
          "name": "",
          "type": "string"
        }
      ],
      "payable": false,
      "stateMutability": "nonpayable",
      "type": "function"
    },
    {
      "constant": true,
      "inputs": [],
      "name": "login",
      "outputs": [
        {
          "components": [
            {
              "internalType": "uint256",
              "name": "userId",
              "type": "uint256"
            },
            {
              "internalType": "string",
              "name": "Uname",
              "type": "string"
            },
            {
              "internalType": "string",
              "name": "Password",
              "type": "string"
            }
          ],
          "internalType": "struct New_Tender.User_credentials[]",
          "name": "",
          "type": "tuple[]"
        }
      ],
      "payable": false,
      "stateMutability": "view",
      "type": "function"
    },
    {
      "constant": true,
      "inputs": [],
      "name": "User_tenders",
      "outputs": [
        {
          "components": [
            {
              "internalType": "uint256",
              "name": "userId",
              "type": "uint256"
            },
            {
              "components": [
                {
                  "components": [
                    {
                      "internalType": "string",
                      "name": "tender_type",
                      "type": "string"
                    },
                    {
                      "internalType": "string",
                      "name": "tender_name",
                      "type": "string"
                    },
                    {
                      "internalType": "address",
                      "name": "owner_address",
                      "type": "address"
                    }
                  ],
                  "internalType": "struct New_Tender.BasicInfo",
                  "name": "basicInfo",
                  "type": "tuple"
                },
                {
                  "components": [
                    {
                      "internalType": "string",
                      "name": "Title",
                      "type": "string"
                    },
                    {
                      "internalType": "string",
                      "name": "Description",
                      "type": "string"
                    },
                    {
                      "internalType": "uint256",
                      "name": "Tender_Value",
                      "type": "uint256"
                    },
                    {
                      "internalType": "uint256",
                      "name": "Bid_Validity_Days",
                      "type": "uint256"
                    },
                    {
                      "internalType": "string",
                      "name": "Location",
                      "type": "string"
                    }
                  ],
                  "internalType": "struct New_Tender.WorkItems",
                  "name": "workItems",
                  "type": "tuple"
                },
                {
                  "components": [
                    {
                      "internalType": "string",
                      "name": "Media_Publish_Date",
                      "type": "string"
                    },
                    {
                      "internalType": "string",
                      "name": "Bit_Start_Date",
                      "type": "string"
                    },
                    {
                      "internalType": "string",
                      "name": "Bid_End_Date",
                      "type": "string"
                    }
                  ],
                  "internalType": "struct New_Tender.CriticalDetails",
                  "name": "criticalDetails",
                  "type": "tuple"
                }
              ],
              "internalType": "struct New_Tender.Master_Struct",
              "name": "masterStruct",
              "type": "tuple"
            }
          ],
          "internalType": "struct New_Tender.Users[]",
          "name": "",
          "type": "tuple[]"
        }
      ],
      "payable": false,
      "stateMutability": "view",
      "type": "function"
    },
    {
      "constant": false,
      "inputs": [
        {
          "internalType": "string",
          "name": "title",
          "type": "string"
        },
        {
          "internalType": "string",
          "name": "description",
          "type": "string"
        },
        {
          "internalType": "uint256",
          "name": "tenderValue",
          "type": "uint256"
        },
        {
          "internalType": "uint256",
          "name": "bidValidityDays",
          "type": "uint256"
        },
        {
          "internalType": "string",
          "name": "location",
          "type": "string"
        },
        {
          "internalType": "string",
          "name": "mediaPublishDate",
          "type": "string"
        },
        {
          "internalType": "string",
          "name": "bidStartDate",
          "type": "string"
        },
        {
          "internalType": "string",
          "name": "bidEndDate",
          "type": "string"
        }
      ],
      "name": "createTender",
      "outputs": [
        {
          "internalType": "string",
          "name": "",
          "type": "string"
        }
      ],
      "payable": true,
      "stateMutability": "payable",
      "type": "function"
    }
  ],
  "bytecode": "0x608060405260008055600060015534801561001957600080fd5b50612136806100296000396000f3fe6080604052600436106100915760003560e01c80635c82165d116100595780635c82165d1461015357806391739f6314610182578063b002104714610195578063b34e97e8146101c4578063b7c408d1146101e657610091565b8063183ca7d714610096578063365b98b2146100c157806336e18778146100ef57806347e70e6414610111578063589759191461013e575b600080fd5b3480156100a257600080fd5b506100ab6101fb565b6040516100b89190611f66565b60405180910390f35b3480156100cd57600080fd5b506100e16100dc366004611c37565b610799565b6040516100b8929190612003565b3480156100fb57600080fd5b50610104610cf5565b6040516100b89190611fc1565b34801561011d57600080fd5b5061013161012c366004611a8f565b610cfb565b6040516100b89190611f77565b34801561014a57600080fd5b50610104610de8565b34801561015f57600080fd5b5061017361016e366004611c37565b610dee565b6040516100b893929190611f88565b610131610190366004611af8565b61131d565b3480156101a157600080fd5b506101b56101b0366004611c37565b6115b4565b6040516100b893929190611fcf565b3480156101d057600080fd5b506101d961170f565b6040516100b89190611f55565b3480156101f257600080fd5b506101046118a3565b60606002805480602002602001604051908101604052809291908181526020016000905b8282101561078f576000848152602090819020604080518082018252600c86029092018054835281516001808301805460029281161561010002600019011691909104601f81018790048702830160e090810190955260c0830181815295969395938701949293919284926060840192859284929184918701828280156102e75780601f106102bc576101008083540402835291602001916102e7565b820191906000526020600020905b8154815290600101906020018083116102ca57829003601f168201915b50505050508152602001600182018054600181600116156101000203166002900480601f0160208091040260200160405190810160405280929190818152602001828054600181600116156101000203166002900480156103895780601f1061035e57610100808354040283529160200191610389565b820191906000526020600020905b81548152906001019060200180831161036c57829003601f168201915b50505091835250506002918201546001600160a01b031660209182015291835260408051600386018054610100600182161502600019011693909304601f81018590048502820160c090810190935260a0820181815295909401949093849284919084018282801561043c5780601f106104115761010080835404028352916020019161043c565b820191906000526020600020905b81548152906001019060200180831161041f57829003601f168201915b50505050508152602001600182018054600181600116156101000203166002900480601f0160208091040260200160405190810160405280929190818152602001828054600181600116156101000203166002900480156104de5780601f106104b3576101008083540402835291602001916104de565b820191906000526020600020905b8154815290600101906020018083116104c157829003601f168201915b505050505081526020016002820154815260200160038201548152602001600482018054600181600116156101000203166002900480601f0160208091040260200160405190810160405280929190818152602001828054600181600116156101000203166002900480156105945780601f1061056957610100808354040283529160200191610594565b820191906000526020600020905b81548152906001019060200180831161057757829003601f168201915b5050509190925250505081526040805160088401805460806020601f6002600019610100600187161502019094169390930492830181900481028501820190955260608401828152949095019492939192849291849184018282801561063b5780601f106106105761010080835404028352916020019161063b565b820191906000526020600020905b81548152906001019060200180831161061e57829003601f168201915b50505050508152602001600182018054600181600116156101000203166002900480601f0160208091040260200160405190810160405280929190818152602001828054600181600116156101000203166002900480156106dd5780601f106106b2576101008083540402835291602001916106dd565b820191906000526020600020905b8154815290600101906020018083116106c057829003601f168201915b5050509183525050600282810180546040805160206001841615610100026000190190931694909404601f8101839004830285018301909152808452938101939083018282801561076f5780601f106107445761010080835404028352916020019161076f565b820191906000526020600020905b81548152906001019060200180831161075257829003601f168201915b50505050508152505081525050815250508152602001906001019061021f565b5050505090505b90565b600281815481106107a657fe5b6000918252602091829020600c91909102018054604080516001808501805460029281161561010002600019011691909104601f8101879004909602820160e090810190935260c08201868152939650939490939284926060840192859284929091849187018282801561085b5780601f106108305761010080835404028352916020019161085b565b820191906000526020600020905b81548152906001019060200180831161083e57829003601f168201915b50505050508152602001600182018054600181600116156101000203166002900480601f0160208091040260200160405190810160405280929190818152602001828054600181600116156101000203166002900480156108fd5780601f106108d2576101008083540402835291602001916108fd565b820191906000526020600020905b8154815290600101906020018083116108e057829003601f168201915b50505091835250506002918201546001600160a01b031660209182015291835260408051600386018054610100600182161502600019011693909304601f81018590048502820160c090810190935260a082018181529590940194909384928491908401828280156109b05780601f10610985576101008083540402835291602001916109b0565b820191906000526020600020905b81548152906001019060200180831161099357829003601f168201915b50505050508152602001600182018054600181600116156101000203166002900480601f016020809104026020016040519081016040528092919081815260200182805460018160011615610100020316600290048015610a525780601f10610a2757610100808354040283529160200191610a52565b820191906000526020600020905b815481529060010190602001808311610a3557829003601f168201915b505050505081526020016002820154815260200160038201548152602001600482018054600181600116156101000203166002900480601f016020809104026020016040519081016040528092919081815260200182805460018160011615610100020316600290048015610b085780601f10610add57610100808354040283529160200191610b08565b820191906000526020600020905b815481529060010190602001808311610aeb57829003601f168201915b5050509190925250505081526040805160088401805460806020601f60026000196101006001871615020190941693909304928301819004810285018201909552606084018281529490950194929391928492918491840182828015610baf5780601f10610b8457610100808354040283529160200191610baf565b820191906000526020600020905b815481529060010190602001808311610b9257829003601f168201915b50505050508152602001600182018054600181600116156101000203166002900480601f016020809104026020016040519081016040528092919081815260200182805460018160011615610100020316600290048015610c515780601f10610c2657610100808354040283529160200191610c51565b820191906000526020600020905b815481529060010190602001808311610c3457829003601f168201915b5050509183525050600282810180546040805160206001841615610100026000190190931694909404601f81018390048302850183019091528084529381019390830182828015610ce35780601f10610cb857610100808354040283529160200191610ce3565b820191906000526020600020905b815481529060010190602001808311610cc657829003601f168201915b50505050508152505081525050905082565b60005481565b60018054810190556060610d0d6118b1565b6001805482526020808301868152604084018690526003805493840180825560008290528551949091027fc2575a0e9e593c00f959f8c92f12db2869c3395a3b0502d05e2516446f71f85b810194855591518051919486949093610d99937fc2575a0e9e593c00f959f8c92f12db2869c3395a3b0502d05e2516446f71f85c90910192909101906118d2565b5060408201518051610db59160028401916020909101906118d2565b505050506040518060400160405280600c81526020016b155cd95c8810dc99585d195960a21b8152509150505b92915050565b60015481565b6004602090815260009182526040918290208251815460026001821615610100026000190190911604601f81018490049093028101608090810190945260608101838152919390928492849290918491840182828015610e8f5780601f10610e6457610100808354040283529160200191610e8f565b820191906000526020600020905b815481529060010190602001808311610e7257829003601f168201915b50505050508152602001600182018054600181600116156101000203166002900480601f016020809104026020016040519081016040528092919081815260200182805460018160011615610100020316600290048015610f315780601f10610f0657610100808354040283529160200191610f31565b820191906000526020600020905b815481529060010190602001808311610f1457829003601f168201915b50505091835250506002918201546001600160a01b031660209182015260408051600386018054610100600182161502600019011694909404601f8101849004909302810160c090810190925260a081018381529495949093928492849190840182828015610fe15780601f10610fb657610100808354040283529160200191610fe1565b820191906000526020600020905b815481529060010190602001808311610fc457829003601f168201915b50505050508152602001600182018054600181600116156101000203166002900480601f0160208091040260200160405190810160405280929190818152602001828054600181600116156101000203166002900480156110835780601f1061105857610100808354040283529160200191611083565b820191906000526020600020905b81548152906001019060200180831161106657829003601f168201915b505050505081526020016002820154815260200160038201548152602001600482018054600181600116156101000203166002900480601f0160208091040260200160405190810160405280929190818152602001828054600181600116156101000203166002900480156111395780601f1061110e57610100808354040283529160200191611139565b820191906000526020600020905b81548152906001019060200180831161111c57829003601f168201915b5050509190925250506040805160088501805460806020601f60026000196101006001871615020190941693909304928301819004028401810190945260608301818152959695929450909284929184918401828280156111db5780601f106111b0576101008083540402835291602001916111db565b820191906000526020600020905b8154815290600101906020018083116111be57829003601f168201915b50505050508152602001600182018054600181600116156101000203166002900480601f01602080910402602001604051908101604052809291908181526020018280546001816001161561010002031660029004801561127d5780601f106112525761010080835404028352916020019161127d565b820191906000526020600020905b81548152906001019060200180831161126057829003601f168201915b5050509183525050600282810180546040805160206001841615610100026000190190931694909404601f8101839004830285018301909152808452938101939083018282801561130f5780601f106112e45761010080835404028352916020019161130f565b820191906000526020600020905b8154815290600101906020018083116112f257829003601f168201915b505050505081525050905083565b6060611327611950565b33604080830191909152805180820182526004815263576f726b60e01b6020808301919091529083528151808301909252601e82527f436f6e737472756374696f6e206f662061206e6577206275696c64696e6700008282015282015261138c61197a565b8a8152602081018a90526040810189905260608101889052608081018790526113b36119a9565b86815260208101869052604081018590526113cc6119ca565b83815260208101839052604081018290526113e56119fc565b6001805482526020808301848152600280549384018082556000919091528451600c9094027f405787fa12a823e0f2b7631cc41b3ba8828b3321ca811111fa75cd3aa3bb5ace8101948555915180518051805193968896909593947f405787fa12a823e0f2b7631cc41b3ba8828b3321ca811111fa75cd3aa3bb5acf9094019384926114759284929101906118d2565b50602082810151805161148e92600185019201906118d2565b5060409190910151600290910180546001600160a01b0319166001600160a01b0390921691909117905560208281015180518051919260038501926114d692849201906118d2565b5060208281015180516114ef92600185019201906118d2565b5060408201516002820155606082015160038201556080820151805161151f9160048401916020909101906118d2565b505050604082015180518051600884019161153f918391602001906118d2565b50602082810151805161155892600185019201906118d2565b50604082015180516115749160028401916020909101906118d2565b50505050505050506040518060400160405280600c81526020016b155cd95c8810dc99585d195960a21b8152509550505050505098975050505050505050565b600381815481106115c157fe5b9060005260206000209060030201600091509050806000015490806001018054600181600116156101000203166002900480601f0160208091040260200160405190810160405280929190818152602001828054600181600116156101000203166002900480156116735780601f1061164857610100808354040283529160200191611673565b820191906000526020600020905b81548152906001019060200180831161165657829003601f168201915b50505060028085018054604080516020601f60001961010060018716150201909416959095049283018590048502810185019091528181529596959450909250908301828280156117055780601f106116da57610100808354040283529160200191611705565b820191906000526020600020905b8154815290600101906020018083116116e857829003601f168201915b5050505050905083565b60606003805480602002602001604051908101604052809291908181526020016000905b8282101561078f578382906000526020600020906003020160405180606001604052908160008201548152602001600182018054600181600116156101000203166002900480601f0160208091040260200160405190810160405280929190818152602001828054600181600116156101000203166002900480156117f95780601f106117ce576101008083540402835291602001916117f9565b820191906000526020600020905b8154815290600101906020018083116117dc57829003601f168201915b5050509183525050600282810180546040805160206001841615610100026000190190931694909404601f8101839004830285018301909152808452938101939083018282801561188b5780601f106118605761010080835404028352916020019161188b565b820191906000526020600020905b81548152906001019060200180831161186e57829003601f168201915b50505050508152505081526020019060010190611733565b600080546001019081905590565b60405180606001604052806000815260200160608152602001606081525090565b828054600181600116156101000203166002900490600052602060002090601f016020900481019282601f1061191357805160ff1916838001178555611940565b82800160010185558215611940579182015b82811115611940578251825591602001919060010190611925565b5061194c929150611a16565b5090565b6040518060600160405280606081526020016060815260200160006001600160a01b031681525090565b6040518060a0016040528060608152602001606081526020016000815260200160008152602001606081525090565b60405180606001604052806060815260200160608152602001606081525090565b60405180606001604052806119dd611950565b81526020016119ea61197a565b81526020016119f76119a9565b905290565b6040518060400160405280600081526020016119f76119ca565b61079691905b8082111561194c5760008155600101611a1c565b600082601f830112611a4157600080fd5b8135611a54611a4f8261204a565b612023565b91508082526020830160208301858383011115611a7057600080fd5b611a7b838284612096565b50505092915050565b8035610de2816120dc565b60008060408385031215611aa257600080fd5b823567ffffffffffffffff811115611ab957600080fd5b611ac585828601611a30565b925050602083013567ffffffffffffffff811115611ae257600080fd5b611aee85828601611a30565b9150509250929050565b600080600080600080600080610100898b031215611b1557600080fd5b883567ffffffffffffffff811115611b2c57600080fd5b611b388b828c01611a30565b985050602089013567ffffffffffffffff811115611b5557600080fd5b611b618b828c01611a30565b9750506040611b728b828c01611a84565b9650506060611b838b828c01611a84565b955050608089013567ffffffffffffffff811115611ba057600080fd5b611bac8b828c01611a30565b94505060a089013567ffffffffffffffff811115611bc957600080fd5b611bd58b828c01611a30565b93505060c089013567ffffffffffffffff811115611bf257600080fd5b611bfe8b828c01611a30565b92505060e089013567ffffffffffffffff811115611c1b57600080fd5b611c278b828c01611a30565b9150509295985092959890939650565b600060208284031215611c4957600080fd5b6000611c558484611a84565b949350505050565b6000611c698383611e82565b9392505050565b6000611c698383611eae565b611c8581612085565b82525050565b6000611c9682612078565b611ca0818561207c565b935083602082028501611cb285612072565b8060005b85811015611cec5784840389528151611ccf8582611c5d565b9450611cda83612072565b60209a909a0199925050600101611cb6565b5091979650505050505050565b6000611d0482612078565b611d0e818561207c565b935083602082028501611d2085612072565b8060005b85811015611cec5784840389528151611d3d8582611c70565b9450611d4883612072565b60209a909a0199925050600101611d24565b6000611d6582612078565b611d6f818561207c565b9350611d7f8185602086016120a2565b611d88816120d2565b9093019392505050565b8051606080845260009190840190611daa8282611d5a565b91505060208301518482036020860152611dc48282611d5a565b9150506040830151611dd96040860182611c7c565b509392505050565b8051606080845260009190840190611df98282611d5a565b91505060208301518482036020860152611e138282611d5a565b91505060408301518482036040860152611e2d8282611d5a565b95945050505050565b8051606080845260009190840190611e4e8282611d92565b91505060208301518482036020860152611e688282611eda565b91505060408301518482036040860152611e2d8282611de1565b80516000906060840190611e968582611f4c565b5060208301518482036020860152611e138282611d5a565b80516000906040840190611ec28582611f4c565b5060208301518482036020860152611e2d8282611e36565b805160a080845260009190840190611ef28282611d5a565b91505060208301518482036020860152611f0c8282611d5a565b9150506040830151611f216040860182611f4c565b506060830151611f346060860182611f4c565b5060808301518482036080860152611e2d8282611d5a565b611c8581610796565b60208082528101611c698184611c8b565b60208082528101611c698184611cf9565b60208082528101611c698184611d5a565b60608082528101611f998186611d92565b90508181036020830152611fad8185611eda565b90508181036040830152611e2d8184611de1565b60208101610de28284611f4c565b60608101611fdd8286611f4c565b8181036020830152611fef8185611d5a565b90508181036040830152611e2d8184611d5a565b604081016120118285611f4c565b8181036020830152611c558184611e36565b60405181810167ffffffffffffffff8111828210171561204257600080fd5b604052919050565b600067ffffffffffffffff82111561206157600080fd5b506020601f91909101601f19160190565b60200190565b5190565b90815260200190565b60006001600160a01b038216610de2565b82818337506000910152565b60005b838110156120bd5781810151838201526020016120a5565b838111156120cc576000848401525b50505050565b601f01601f191690565b6120e581610796565b81146120f057600080fd5b5056fea365627a7a72315820a804122bf8ecb73773c8b16e7cc9d0eee2014fe3dfb3ad6fddd369fa59bbf94f6c6578706572696d656e74616cf564736f6c63430005100040",
  "source": "pragma solidity >=0.5.2;\r\npragma experimental ABIEncoderV2;\r\n\r\ncontract New_Tender {\r\n    uint public tenderId = 0;\r\n    uint public userId = 0;\r\n\r\n    \r\n    \r\n    Users[] public users;\r\n    User_credentials[] public user_credentials;\r\n\r\n    struct Users {\r\n        uint userId;\r\n        Master_Struct masterStruct;\r\n    }\r\n\r\n    struct User_credentials {\r\n        uint userId;\r\n        string Uname;\r\n        string Password;\r\n    }\r\n\r\n    struct BasicInfo {\r\n        string tender_type;\r\n        string tender_name;\r\n        address owner_address;\r\n    }\r\n\r\n    struct WorkItems {\r\n        string Title;\r\n        string Description;\r\n        uint Tender_Value;\r\n        uint Bid_Validity_Days;\r\n        string Location;\r\n    }\r\n\r\n    struct CriticalDetails {\r\n        string Media_Publish_Date;\r\n        string Bit_Start_Date;\r\n        string Bid_End_Date;\r\n    }\r\n\r\n    struct Master_Struct {\r\n        BasicInfo basicInfo;\r\n        WorkItems workItems;\r\n        CriticalDetails criticalDetails;\r\n    }\r\n\r\n    mapping(uint => Master_Struct) public tender_details;\r\n\r\n    function summa() public returns(uint){\r\n        tenderId = tenderId + 1;\r\n        return tenderId;\r\n    }\r\n\r\n    function signup(\r\n        string memory Uname,\r\n        string memory Password\r\n    ) public returns (string memory) {\r\n        userId = userId + 1;   \r\n        User_credentials memory newUser;\r\n        newUser.userId = userId;\r\n        newUser.Uname = Uname;\r\n        newUser.Password = Password;\r\n        user_credentials.push(newUser);\r\n        return \"User Created\";\r\n\r\n    }\r\n\r\n    function login() public view returns (User_credentials[] memory) {\r\n        return user_credentials;\r\n    }\r\n    function User_tenders() public view returns (Users[] memory) {\r\n        return users;\r\n    }\r\n\r\n    function createTender(\r\n        string memory title,\r\n        string memory description,\r\n        uint tenderValue,\r\n        uint bidValidityDays,\r\n        string memory location,\r\n        string memory mediaPublishDate,\r\n        string memory bidStartDate,\r\n        string memory bidEndDate\r\n    ) public payable  returns (string memory){\r\n        // tenderId++;\r\n        // tender_details[tenderId].basicInfo.id = tenderId;\r\n        // tender_details[tenderId].basicInfo.owner_address = msg.sender;\r\n        // tender_details[tenderId].basicInfo.tender_type = \"Work\";\r\n        // tender_details[tenderId]\r\n        //     .basicInfo\r\n        //     .tender_name = \"Construction of a new building\";\r\n        // tender_details[tenderId].workItems.Title = title;\r\n        // tender_details[tenderId].workItems.Description = description;\r\n        // tender_details[tenderId].workItems.Tender_Value = tenderValue;\r\n        // tender_details[tenderId].workItems.Bid_Validity_Days = bidValidityDays;\r\n        // tender_details[tenderId].workItems.Location = location;\r\n        // tender_details[tenderId]\r\n        //     .criticalDetails\r\n        //     .Media_Publish_Date = mediaPublishDate;\r\n        // tender_details[tenderId].criticalDetails.Bit_Start_Date = bidStartDate;\r\n        // tender_details[tenderId].criticalDetails.Bid_End_Date = bidEndDate;\r\n\r\n        BasicInfo memory basicInfo;\r\n        basicInfo.owner_address = msg.sender;\r\n        basicInfo.tender_type = \"Work\";\r\n        basicInfo.tender_name = \"Construction of a new building\";\r\n\r\n        WorkItems memory workItems;\r\n        workItems.Title = title;\r\n        workItems.Description = description;\r\n        workItems.Tender_Value = tenderValue;\r\n        workItems.Bid_Validity_Days = bidValidityDays;\r\n        workItems.Location = location;\r\n\r\n        CriticalDetails memory criticalDetails;\r\n        criticalDetails.Media_Publish_Date = mediaPublishDate;\r\n        criticalDetails.Bit_Start_Date = bidStartDate;\r\n        criticalDetails.Bid_End_Date = bidEndDate;\r\n\r\n        Master_Struct memory masterStruct;\r\n        masterStruct.basicInfo = basicInfo;\r\n        masterStruct.workItems = workItems;\r\n        masterStruct.criticalDetails = criticalDetails;\r\n\r\n        Users memory newUser;\r\n        newUser.userId = userId;\r\n        newUser.masterStruct = masterStruct;\r\n\r\n        users.push(newUser);\r\n\r\n        return \"User Created\";\r\n    }\r\n}\r\n",
  "sourcePath": "D:\\Tender2.0\\contracts\\new_tender.sol",
  "compiler": {
    "name": "solc",
    "version": "0.5.16+commit.9c3226ce.Emscripten.clang"
  },
  "schemaVersion": "3.4.16",
  "updatedAt": "2023-11-07T06:01:14.812Z",
  "networkType": "ethereum",
  "devdoc": {
    "methods": {}
  },
  "userdoc": {
    "methods": {}
  }
}